S00F00007072656C6162362E7372656369
S11300000C9434000C943E000C943E000C943E007E
S11300100C943E000C943E000C943E000C943E0064
S11300200C943E000C943E000C943E000C943E0054
S11300300C943E000C943E000C943E000C943E0044
S11300400C943E000C943E000C943E000C943E0034
S11300500C943E000C943E000C943E000C943E0024
S11300600C943E000C943E0011241FBECFEFD8E048
S1130070DEBFCDBF0E9453000C949E000C94000080
S11300801092C50087E68093C40088E18093C10084
S113009086E08093C20008959091C00095FFFCCF44
S11300A08093C6000895CF93DF9300D000D0CDB7DE
S11300B0DEB70E9440008FEF84B98AB18C608AB9A0
S11300C081E40E944C008DE00E944C008AE00E9472
S11300D04C008091C0008823BCF48091C600982F06
S11300E09F7395B986FF04C09BB194609BB903C00C
S11300F09BB19B7F9BB9882324F48BB188608BB917
S113010003C08BB1877F8BB919821A821B821C8230
S11301100BC089819A81AB81BC810196A11DB11D5F
S113012089839A83AB83BC8389819A81AB81BC81A7
S113013080349D40A340B10564F3C2CFF894FFCF4F
S9030000FC
