S01A000061646166727569745F70726F796563746F322E73726563B4
S11300000C943A000C944F000C944F000C944F0045
S11300100C944F000C944F000C944F000C944F0020
S11300200C944F000C944F000C944F000C944F0010
S11300300C944F000C944F000C944F000C944F0000
S11300400C944F000C944F000C944F000C944F00F0
S11300500C944F000C944F000C944F000C944F00E0
S11300600C944F000C944F006364696E6F70737549
S113007078585B0011241FBECFEFD8E0DEBFCDBFA0
S113008011E0A0E0B1E0E0EAFAE002C005900D92D0
S1130090AC30B107D9F70E940E010C944E050C94B4
S11300A000001092C50087E68093C40088E1809325
S11300B0C10086E08093C20008958091C0008078DA
S11300C008958091C60008958AB188608AB98AB17A
S11300D080628AB98AB180648AB984B1826084B941
S11300E00895FB019081982B908305C095E09A9523
S11300F0F1F70000A9019A0121503109452BB1F70C
S1130100908180958923808308959F92AF92BF92B6
S1130110CF92DF92EF92FF920F931F93CF93DF93CF
S1130120D62FC42F922E282F30E0A8EEB3E00E94E1
S1130130D4010F2EF4EBCF2ED12CE12CF12CF02D89
S1130140A70196010E94B201590188E1A81A8CEF17
S1130150B80A2D2F30E0A8EEB3E00E94D401A70125
S113016096010E94B201890108511C4F2C2F30E0E6
S1130170A8EEB3E00E94D401A70196010E94B20147
S1130180E901C851DC4F292D30E0A8EEB3E00E940C
S1130190D401A70196010E94B201790198E1E91AFC
S11301A09CEFF90AA5016BE270E088E00E947100FF
S11301B08FE39FE10197F1F700C00000A8016BE213
S11301C070E080E20E9471008FE39FE10197F1F7F4
S11301D000C00000AE016BE270E080E40E94710098
S11301E08FE39FE10197F1F700C00000A70165E2EA
S11301F070E082E00E9471008FE39FE10197F1F7C4
S113020000C00000DF91CF911F910F91FF90EF90FC
S1130210DF90CF90BF90AF909F900895CF93DF93DE
S1130220CDB7DEB7A8970FB6F894DEBF0FBECDBF2B
S11302308AE590E09AA389A39CA38BA39EA38DA394
S113024098A78FA30E9451000E94640010E000E070
S113025007C02FA14DA16BA189A10E9485000F5F4A
S11302600530B8F37AC00E9461008A3019F08D30ED
S113027009F065C0CE010196FC01E10FF11D108269
S11302809E01295D3F4F3F932F93225031093F93A5
S11302902F93225031093F932F93225031093F93DA
S11302A02F9320E031E03F932F939F938F930E94ED
S11302B0E3010FB6F894DEBF0FBECDBF049709F07B
S11302C049C089A19AA1992314F41AA219A289A157
S11302D09AA1853B910524F084EB90E09AA389A32D
S11302E08BA19CA1992314F41CA21BA28BA19CA1F9
S11302F0853B910524F084EB90E09CA38BA38DA116
S11303009EA1992314F41EA21DA28DA19EA1853B3A
S1130310910524F084EB90E09EA38DA38FA198A572
S1130320992314F418A61FA28FA198A5853B9105C3
S11303309CF084EB90E098A78FA310E00EC01F31CF
S113034060F4E1E0F0E0EC0FFD1FE10FF11D8083AC
S11303501F5F03C010E001C010E00E945D00811126
S113036082CF75CFA1E21A2EAA1BBB1BFD010DC0C3
S1130370AA1FBB1FEE1FFF1FA217B307E407F50751
S113038020F0A21BB30BE40BF50B661F771F881F2D
S1130390991F1A9469F760957095809590959B01C3
S11303A0AC01BD01CF010895A29FB001B39FC0016C
S11303B0A39F700D811D1124911DB29F700D811D8D
S11303C01124911D0895AEE0B0E0E9EEF1E00C9443
S11303D0270585E08C838B899C899A838983AE0168
S11303E0495E5F4F6D897E89CE0101960E94980314
S11303F02E96E2E00C94430520FD09C0FC0123FD88
S113040005C022FF02C07383628351834083089531
S113041044FD17C046FD17C0AB01BC01DA01FB0166
S1130420AA0FBB1FEE1FFF1F1094D1F74A0F5B1FCB
S11304306E1F7F1FCB01BA01660F771F881F991F9C
S113044009C033E001C034E0660F771F881F991F8D
S11304503150D1F7620F711D811D911D08950F93C5
S11304601F93CF93DF938C01C8010E94BD04EC015C
S113047097FD08C00E94A904892BB1F7B801CE01E9
S11304800E94FB04CE01DF91CF911F910F9108953B
S11304908F929F92AF92BF92EF92FF920F931F930E
S11304A0CF93DF938C01D62F7A01B22E0E94BD0424
S11304B09C0133272B32310531F02D32310561F4A3
S11304C08B2D8068B82ED15011F480E068C0C8012B
S11304D00E94BD0497FDF9CFCB2DCD7F2B2D20732A
S11304E009F58033F9F4AA24AA94AD0E09F443C0A3
S11304F0C8010E94BD0497FD3EC09C012F7D332797
S11305002835310549F4C264D250A9F1C8010E94CA
S1130510BD0497FF07C02FC0B6FE02C0C26001C071
S1130520C261DA2D812C912C540120ED280F283042
S113053080F0C4FF04C0B8010E94FB0419C02A3033
S113054040F0C6FFF8CF2F7D3FEE320F363098F7DC
S113055027504C2FC501B4010E9408024B015C01D5
S1130560C260D15059F0C8010E94BD0497FFDDCF8D
S1130570C1FD04C0AACF812C912C5401C7FF08C02F
S1130580B094A09490948094811C911CA11CB11CE3
S11305902C2FB501A401C7010E94FC0181E0DF9169
S11305A0CF911F910F91FF90EF90BF90AF909F90CC
S11305B08F900895A0E2B0E0E0EEF2E00C941A050A
S11305C05C01962E7A01F9018E010F5F1F4F6801BD
S11305D080E2D8011D928A95E9F7D50113968C9093
S11305E080E090E0612C712C30E061E070E083FCED
S11305F0259183FE21918F01522E211103C080E0A9
S113060090E092C02E3511F4009751F1432F50E041
S1130610481759073CF42D3559F12D3219F4772038
S113062009F103C0772009F46AC0452D4695469523
S11306304695D601A40FB11D452D47708B0102C00C
S1130640000F111F4A95E2F7A8015C91452B4C93CA
S1130650651459F0561410F45394E7CF5A94E5CF27
S113066031E004C07724739401C0712C0196BFCF8C
S1130670772019F08E8180628E83311103C0882423
S1130680839417C0F6019E012F5D3F4F80818095B2
S113069081932E173F07D1F7F2CFE114F10429F02B
S11306A0D7018C93F70131967F019A94812C99207C
S11306B0F9F0C5010E94BD0497FD18C0FC01FF2795
S11306C023E0F595E7952A95E1F7EC0DFD1D2081D2
S11306D030E0AC014770552702C0359527954A95FF
S11306E0E2F720FDDACFB5010E94FB04811087CF29
S11306F0E114F10411F0D7011C92C80115C0422F76
S1130700469546954695D601A40FB11D422F4770D4
S11307108B0102C0000F111F4A95E2F7A8015C91FA
S1130720452B4C93622EA2CFA096EFE00C94360595
S1130730A0E0B0E0EEE9F3E00C941A056C01EB01E3
S11307405A01FC0117821682512CF601E380FE0146
S1130750E3FC8591E3FE8191182FEF01882309F4CE
S1130760EEC090E00E94A904892B21F0C6010E94EA
S11307702F02EBCF153241F4FE01E3FC1591E3FEA9
S11307801191EF01153281F4C6010E94BD0497FD59
S1130790D4C0412F50E09C01332724173507A9F218
S11307A0B6010E94FB04CBC01A3239F4E3FC159164
S11307B0E3FE1191EF0101E001C000E0F12C20ED16
S11307C0210F2A3080F402606F2D70E080E090E009
S11307D040E20E940802F62EFE01E3FC1591E3FEBE
S11307E01191EF01ECCF01FF03C0F11003C0A7C0CA
S11307F0FF24FA94183619F01C3651F010C0FE018B
S1130800E3FC1591E3FE1191EF01183641F4086001
S11308100460FE01E3FC1591E3FE1191EF01112345
S113082009F48DC0612F70E088E690E00E94B20464
S1130830892B09F484C000FD07C0F50180809180F4
S1130840C50102965C0102C0812C912C1E3651F424
S1130850F6014681578160E070E0202FC4010E94B8
S1130860FC0173CF1336A9F401FD02C0FF24F394F5
S1130870C6010E94BD0497FD60C08114910429F053
S1130880F4018083C40101964C01FA94F110F0CF75
S113089050C01B3559F49E01A4016F2DC6010E945E
S11308A0DA02EC01892B09F044C03EC0C6010E9463
S11308B02F0297FD42C01F3661F128F4143639F136
S11308C0193651F128C0133771F0153701F123C0DF
S11308D08114910429F0F4016082C40101964C0151
S11308E0FA94FF2071F0C6010E94BD043C0197FDFB
S11308F008C00E94A904892B59F3B601C3010E94C0
S1130900FB0481149104A9F0F401108212C0006266
S113091003C0006101C00064202FA4016F2DC60133
S11309200E944802811105C0F6018381807329F475
S113093006C000FD0ACF539408CF552019F0852D29
S113094090E002C08FEF9FEFCDB7DEB7EFE00C94DD
S1130950360591110C941405803219F08950855094
S1130960C8F70895FC010590061621F00020D9F778
S1130970C00108953197CF010895CF93DF93EC011F
S11309802B8120FF33C026FF0AC02F7B2B838E814F
S11309909F8101969F838E838A8190E029C022FFE4
S11309A00FC0E881F9818081082E000C990B009713
S11309B019F420622B831AC03196F983E8830EC0A0
S11309C0EA85FB85099597FF09C02B81019611F0F3
S11309D080E201C080E1822B8B8308C02E813F819D
S11309E02F5F3F4F3F832E83992702C08FEF9FEFE6
S11309F0DF91CF910895FB01238120FF12C026FDD2
S1130A0010C08F3F3FEF930761F082832F7D2064F6
S1130A1023832681378121503109378326839927FF
S1130A2008958FEF9FEF08959927882708952F92AF
S1130A303F924F925F926F927F928F929F92AF926A
S1130A40BF92CF92DF92EF92FF920F931F93CF93B7
S1130A50DF93CDB7DEB7CA1BDB0B0FB6F894DEBF4E
S1130A600FBECDBF09942A88398848885F846E8474
S1130A707D848C849B84AA84B984C884DF80EE80BE
S1130A80FD800C811B81AA81B981CE0FD11D0FB6C7
S1130A90F894DEBF0FBECDBFED010895F894FFCFEB
S10F0AA025642C25642C25642C2564009E
S9030000FC
