:100000000C9434000C9446000C9446000C9446006A
:100010000C9446000C9446000C9446000C94460048
:100020000C9446000C9446000C9446000C94460038
:100030000C9446000C9446000C9444010C94460029
:100040000C9446000C9446000C9446000C94460018
:100050000C9446000C94B2000C9446000C9446009C
:100060000C9446000C94460011241FBECFEFD8E03C
:10007000DEBFCDBF21E0A0E0B1E001C01D92A930FC
:10008000B207E1F70E94A0000C9495010C940000C7
:10009000E1E6F0E080E8808383E080838AB18064D9
:1000A0008AB984B1826084B984B1886084B91BB88C
:1000B00015B8089582E084BD91E095BD92E397BDA7
:1000C00080936E000895E0E8F0E08081826880838C
:1000D000E1E8F0E0808188618083808182608083B4
:1000E00088E893E190938700809386008AEF90E000
:1000F00090938900809388000895E0EBF0E01082EF
:10010000A1EBB0E01C928081836080838081806855
:1001100080838C9183608C938AEF8093B3000895E1
:10012000ECE7F0E01082808180648083EAE7F0E011
:1001300010828081836880838081886080830895B5
:10014000F8940E9448000E945A000E9463000E9496
:100150007D000E9490007894EAE7F0E0808180645E
:100160008083FFCF1F920F920FB60F9211242F930F
:100170003F934F935F936F937F938F939F93AF932F
:10018000BF93EF93FF932091780030917900809195
:100190000201811122C030930801209307012091B0
:1001A000070130910801A4EFB1E00E9486012FEF12
:1001B00033E040E050E00E94640123583F4F309309
:1001C000890020938800ECE7F0E08081807F8160E7
:1001D000808381E08093020141C0809102018130DF
:1001E000F1F430930601209305012091050130912F
:1001F0000601AFEFB0E00E9486012FEF33E040E050
:1002000050E00E9464012093B300ECE7F0E08081AD
:10021000807F8260808382E0809302011FC0809192
:1002200002018230D9F4309304012093030120911C
:10023000030130910401AFEFB0E00E9486012FEF7F
:1002400033E040E050E00E94640120930001ECE7BD
:10025000F0E08081807F808310920201EAE7F0E085
:10026000808180648083FF91EF91BF91AF919F91D6
:100270008F917F916F915F914F913F912F910F904F
:100280000FBE0F901F9018951F920F920FB60F92EE
:1002900011248F939F93809101018F5F80930101BF
:1002A0009091010180910001981720F48BB1806436
:1002B0008BB903C08BB18F7B8BB99F918F910F90BE
:1002C0000FBE0F901F901895A1E21A2EAA1BBB1B00
:1002D000FD010DC0AA1FBB1FEE1FFF1FA217B30712
:1002E000E407F50720F0A21BB30BE40BF50B661F28
:1002F000771F881F991F1A9469F7609570958095EC
:1003000090959B01AC01BD01CF010895A29FB00162
:10031000B39FC001A39F700D811D1124911DB29F39
:0E032000700D811D1124911D0895F894FFCFDA
:00000001FF
