S018000070726F796563746F325F6D6963726F732E7372656379
S11300000C943A000C944F000C944F000C944F0045
S11300100C944F000C944F000C944F000C944F0020
S11300200C944F000C944F000C944F000C944F0010
S11300300C944F000C944F000C944F000C944F0000
S11300400C944F000C944F000C944F000C944F00F0
S11300500C944F000C944F000C944F000C944F00E0
S11300600C944F000C944F006364696E6F70737549
S113007078585B0011241FBECFEFD8E0DEBFCDBFA0
S113008013E0A0E0B1E0E6ECF4E102C005900D92CB
S1130090A431B107D9F70E9484010C94610A0C942D
S11300A000001092C50087E68093C40088E1809325
S11300B0C10086E08093C20008959091C00095FF2E
S11300C0FCCF8093C6000895CF93DF93EC0103C067
S11300D021960E945D0088818111FACFDF91CF9132
S11300E008958091C000807808958091C600089595
S11300F080E480937C0087E880937A000895ECE79D
S1130100F0E09081907F892B8083EAE7F0E08081A2
S11301108064808380917A0086FDFCCF8091780092
S11301209091790008958AB188668AB984B1826011
S113013084B90895FB019081982B908305C095E0C4
S11301409A95F1F70000A9019A0121503109452B34
S1130150B1F7908180958923808308959F92AF920F
S1130160BF92CF92DF92EF92FF920F931F93CF93A0
S1130170DF93D62FC42F922E282F30E0A8EEB3E0C1
S11301800E9415040F2EF4EBCF2ED12CE12CF12C70
S1130190F02DA70196010E94F303590188E1A81AE2
S11301A08CEFB80A2D2F30E0A8EEB3E00E941504BE
S11301B0A70196010E94F303890108511C4F2C2FBB
S11301C030E0A8EEB3E00E941504A70196010E9456
S11301D0F303E901C851DC4F292D30E0A8EEB3E068
S11301E00E941504A70196010E94F303790198E186
S11301F0E91A9CEFF90AA5016BE270E088E00E941D
S11302009A008FE19EE40197F1F700C00000A80175
S11302106BE270E080E20E949A008FE19EE4019715
S1130220F1F700C00000AE016BE270E080E40E94D0
S11302309A008FE19EE40197F1F700C00000A70146
S113024065E270E082E00E949A008FE19EE40197EB
S1130250F1F700C00000DF91CF911F910F91FF9043
S1130260EF90DF90CF90BF90AF909F90089587B1AB
S1130270806287B9089588B18F7D88B9089598B14F
S113028080E2892788B9089587B18F7E87B988B1BC
S1130290806188B9089596B1892F807194FD0DC04D
S11302A02FEF36E791E0215030409040E1F700C055
S11302B00000349903C081E0089580E008958AED38
S11302C091E00E94640080E091E00E9464008BE170
S11302D091E00E94640080E091E00E94640082E367
S11302E091E00E94640080E491E00E9464008EE446
S11302F091E00E94640080E091E00E9464008AE53D
S113030091E00E9464000895CF93DF93CDB7DEB7E8
S1130310C856D1090FB6F894DEBF0FBECDBF0E94F8
S113032051000E9478000E9493000E9437010E94AD
S1130330440180E490E00E94140AC82E2FEF821337
S113034001C0C12C0E945F010E9471008823E1F367
S11303500E947500782E31E38313DBC08EE691E0B2
S11303600E9464008AE891E00E94640082EA91E0BD
S11303700E9464000E943F0180E00E947F000F2ED3
S1130380F4EBFF2EF02DAC01F49EC001F59E900D10
S113039011240FEF13E0B8010E94DF03862ED62E3E
S11303A081E00E947F009C01F29EC001F39E900DAB
S11303B01124B8010E94DF03962EE62E82E00E94EB
S11303C07F00AC01F49EC001F59E900D1124B8018C
S11303D00E94DF03A62EF62E83E00E947F002AE50A
S11303E0AC01249FC001259F900D1124B8010E94E7
S11303F0DF03B62E062F10E007C0202F4F2D6E2DE1
S11304008D2D0E94AE001F5F1A30B8F31F92BF9269
S11304101F92AF921F929F921F928F928DE492E04F
S11304209F938F938E010F5F1F4F1F930F930E9413
S11304302D04C8010E9464000E944B010FB6F89479
S1130440DEBF0FBECDBF882309F44CC03FE03C158E
S1130450E0F10C2D000F000F10E0682DC801805052
S113046090400E941C0A692DC8018F5F9F4F0E9413
S11304701C0A6A2DC8018E5F9F4F0E941C0A6B2DB7
S1130480C8018D5F9F4F0E941C0AC3946C2D80E4A9
S113049090E00E941C0A8C2D90E001979F938F930B
S11304A082EB91E09F938F938E010F5F1F4F1F93F9
S11304B00F930E942D04C8010E9464000F900F90B6
S11304C00F900F900F900F9004C085EC91E00E9464
S11304D064004FEF59E688E1415050408040E1F715
S11304E000C000000E947100882349F00E9475003A
S11304F0813729F48DED91E00E9464000AC09FEFDA
S113050020E732E0915020403040E1F700C0000085
S113051031CF42E374128EC08BEE91E00E946400EE
S1130520C1100EC087E092E00E9464005FEF8DE38B
S113053099E4515080409040E1F700C0000002CFA0
S11305401F92CF9281E292E09F938F938E010F5F6F
S11305501F4F1F930F930E942D04C8010E94640033
S113056087E392E00E9464000F900F900F900F9029
S11305700F900F90A12C5AC00A2D000F000F10E00D
S1130580C801805090400E94140AF82EC8018F5F61
S11305909F4F0E94140AE82EC8018E5F9F4F0E944D
S11305A0140AD82EC8018D5F9F4F0E94140AB82EDA
S11305B01F928F931F92DF921F92EF921F92FF92CE
S11305C01F92AF9284E492E09F938F938E010F5F0A
S11305D01F4F1F930F930E942D04C8010E946400B3
S11305E00FB6F894DEBF0FBECDBF00E010E017C019
S11305F02B2D4D2D6E2D8F2D0E94AE000C5E1F4FA6
S11306000E947100882359F00E947500813739F4E3
S11306100E943B018DED91E00E9464000BC0083EF6
S113062033E0130728F30E943F01A394AC1408F4A9
S1130630A3CFA0CF43E3741285CE8BE692E00E9451
S1130640640085E892E00E9464008CE992E00E94D4
S1130650640087E392E00E94640000E00E9471005D
S11306608823E1F30E947500182F0E945D001D305D
S113067019F01A3009F097C0E1E4F0E0EC0FFD1F27
S1130680E00FF11D10828AED91E00E946400229631
S11306908FAD2297811102C000E0E0CF64EB72E0DD
S11306A0CE018F5B9F4F0E942404892B29F486EB93
S11306B092E00E94640046CECE018F599F4F9F93D3
S11306C08F9302969F938F9302969F938F93029694
S11306D09F938F9386EC92E09F938F93CE018F5BD1
S11306E09F4F9F938F930E944F040FB6F894DEBFE1
S11306F00FBECDBF049709F050C0A9968EAD9FAD33
S1130700A997853B910514F4182F01C014EBA79603
S11307108EAD9FADA797853B910514F4082F01C0BA
S113072004EBA5968EAD9FADA597853B910514F47A
S1130730F82E04C00F2EF4EBFF2EF02DA3968EADF1
S11307409FADA3978B35910514F4E82E04C00F2EAA
S1130750FAE5EF2EF02D2E2D4F2D602F812F0E94C4
S1130760AE001F92EF921F92FF921F920F931F925F
S11307701F9382ED92E09F938F938E010F5F1F4F23
S11307801F930F930E942D04C8010E9464000FB6AA
S1130790F894DEBF0FBECDBF04C080EF92E00E948C
S11307A0640000E05BCF0F3108F058CFE1E4F0E0E3
S11307B0EC0FFD1FE00FF11D10830F5F4FCFAA1B3D
S11307C0BB1B51E107C0AA1FBB1FA617B70710F038
S11307D0A61BB70B881F991F5A95A9F7809590956A
S11307E0BC01CD010895A1E21A2EAA1BBB1BFD0179
S11307F00DC0AA1FBB1FEE1FFF1FA217B307E407FC
S1130800F50720F0A21BB30BE40BF50B661F771F53
S1130810881F991F1A9469F7609570958095909533
S11308209B01AC01BD01CF010895A29FB001B39F0C
S1130830C001A39F700D811D1124911DB29F700DE5
S1130840811D1124911D0895FB01DC018D910190FE
S113085080190110D9F3990B0895AEE0B0E0E3E3F9
S1130860F4E00C94380A0D891E8986E08C831A837F
S113087009838FEF9FE79E838D83AE01475E5F4FB1
S11308806F89788DCE0101960E946804EF81F88506
S1130890E00FF11F10822E96E4E00C94540AAEE0AF
S11308A0B0E0E5E5F4E00C943A0A85E08C838B89AA
S11308B09C899A838983AE01495E5F4F6D897E89E5
S11308C0CE0101960E94E5072E96E2E00C94560AAA
S11308D0ABE0B0E0EEE6F4E00C942A0A6C017B0194
S11308E08A01FC0117821682838181FFCCC1CE016B
S11308F001963C01F6019381F70193FD859193FFE5
S113090081917F01882309F4BAC1853239F493FDBA
S1130910859193FF81917F01853229F4B60190E09E
S11309200E945E09E7CF912C212C312CFFE1F315B5
S1130930D8F08B3279F038F4803279F08332A1F434
S1130940232D20611DC08D3261F0803369F4232D85
S1130950216016C0832D8260382EE32DE4603E2E84
S11309602AC0F32DF8601DC037FC2DC020ED280FE0
S11309702A3040F08E32B9F436FC81C1232D206434
S1130980322E19C036FE06C08AE0989E200D11242E
S1130990922E11C0EAE02E9E200D1124222EF32D5A
S11309A0F0623F2E08C08C3621F4832D8068382EE7
S11309B002C0883641F4F70193FD859193FF81913C
S11309C07F018111B3CF982F9F7D9554933028F4E4
S11309D00C5F1F4F9FE399830DC0833631F083373B
S11309E071F0833509F059C021C0F80180818983F1
S11309F00E5F1F4F88248394912C530113C0280148
S1130A00F2E04F0E511CF801A080B18036FE03C005
S1130A10692D70E002C06FEF7FEFC5010E941509D8
S1130A204C018201F32DFF773F2E16C0280122E0EE
S1130A30420E511CF801A080B18036FE03C0692D1E
S1130A4070E002C06FEF7FEFC5010E940A094C01FC
S1130A50F32DF0683F2E820133FC1BC0822D90E001
S1130A6088169906B0F4B60180E290E00E945E090F
S1130A702A94F4CFF50137FC859137FE81915F010B
S1130A80B60190E00E945E0921102A9421E0821AA6
S1130A9091088114910471F7E8C0843611F0893605
S1130AA041F5F80137FE07C060817181828193812D
S1130AB00C5F1F4F08C060817181072E000C880BEA
S1130AC0990B0E5F1F4FF32DFF763F2E97FF09C042
S1130AD090958095709561957F4F8F4F9F4FF068EB
S1130AE03F2E2AE030E0A3010E94B309882E861825
S1130AF045C0853731F4232D2F7EB22E2AE030E015
S1130B0025C0932D997FB92E8F36C1F018F48835FE
S1130B1079F0B5C0803719F0883721F0B0C0E92FDB
S1130B20E061BE2EB4FE0DC0FB2DF460BF2E09C0E3
S1130B3034FE0AC0292F2660B22E06C028E030E019
S1130B4005C020E130E002C020E132E0F801B7FE48
S1130B5007C060817181828193810C5F1F4F06C041
S1130B606081718180E090E00E5F1F4FA3010E94BD
S1130B70B309882E8618FB2DFF773F2E36FE0DC055
S1130B80232D2E7FA22E891458F434FE0BC032FC80
S1130B9009C0832D8E7EA82E05C0B82CA32C03C0BB
S1130BA0B82C01C0B92CA4FE0FC0FE01E80DF11D44
S1130BB08081803321F49A2D997EA92E09C0A2FE4A
S1130BC006C0B394B39404C08A2D867809F0B39414
S1130BD0A3FC11C0A0FE06C0B21488F4280C922C09
S1130BE09B180EC0B21460F4B60180E290E00E943B
S1130BF05E09B394F7CFB21418F42B1802C0982CE2
S1130C00212CA4FE10C0B60180E390E00E945E098E
S1130C10A2FE17C0A1FC03C088E790E002C088E5EB
S1130C2090E0B6010CC08A2D867859F0A1FE02C06E
S1130C308BE201C080E2A7FC8DE2B60190E00E9445
S1130C405E09891438F4B60180E390E00E945E09DD
S1130C509A94F7CF8A94F301E80DF11D8081B601CF
S1130C6090E00E945E098110F5CF222009F442CE63
S1130C70B60180E290E00E945E092A94F6CFF60164
S1130C808681978102C08FEF9FEF2B96E2E10C944F
S1130C90460A20FD09C0FC0123FD05C022FF02C055
S1130CA07383628351834083089544FD17C046FDD6
S1130CB017C0AB01BC01DA01FB01AA0FBB1FEE1F79
S1130CC0FF1F1094D1F74A0F5B1F6E1F7F1FCB01CC
S1130CD0BA01660F771F881F991F09C033E001C04E
S1130CE034E0660F771F881F991F3150D1F7620FC8
S1130CF0711D811D911D08950F931F93CF93DF9351
S1130D008C01C8010E942009EC0197FD08C00E94D3
S1130D10F608892BB1F7B801CE010E949A09CE01D9
S1130D20DF91CF911F910F9108958F929F92AF926F
S1130D30BF92EF92FF920F931F93CF93DF938C0197
S1130D40D62F7A01B22E0E9420099C0133272B3220
S1130D50310531F02D32310561F48B2D8068B82EC8
S1130D60D15011F480E068C0C8010E94200997FDA9
S1130D70F9CFCB2DCD7F2B2D207309F58033F9F4DA
S1130D80AA24AA94AD0E09F443C0C8010E94200904
S1130D9097FD3EC09C012F7D33272835310549F44A
S1130DA0C264D250A9F1C8010E94200997FF07C06C
S1130DB02FC0B6FE02C0C26001C0C261DA2D812C10
S1130DC0912C540120ED280F283080F0C4FF04C07A
S1130DD0B8010E949A0919C02A3040F0C6FFF8CF22
S1130DE02F7D3FEE320F363098F727504C2FC50138
S1130DF0B4010E9455064B015C01C260D15059F008
S1130E00C8010E94200997FFDDCFC1FD04C0AACF0D
S1130E10812C912C5401C7FF08C0B094A0949094E5
S1130E208094811C911CA11CB11C2C2FB501A40120
S1130E30C7010E94490681E0DF91CF911F910F9174
S1130E40FF90EF90BF90AF909F908F900895A0E295
S1130E50B0E0EDE2F7E00C942D0A5C01962E7A01E5
S1130E60F9018E010F5F1F4F680180E2D8011D92C6
S1130E708A95E9F7D50113968C9080E090E0612C77
S1130E80712C30E061E070E083FC259183FE2191B8
S1130E908F01522E211103C080E090E092C02E35C4
S1130EA011F4009751F1432F50E0481759073CF4CF
S1130EB02D3559F12D3219F4772009F103C077202B
S1130EC009F46AC0452D469546954695D601A40F6A
S1130ED0B11D452D47708B0102C0000F111F4A95AB
S1130EE0E2F7A8015C91452B4C93651459F0561414
S1130EF010F45394E7CF5A94E5CF31E004C077243B
S1130F00739401C0712C0196BFCF772019F08E81A4
S1130F1080628E83311103C08824839417C0F60144
S1130F209E012F5D3F4F8081809581932E173F074F
S1130F30D1F7F2CFE114F10429F0D7018C93F70132
S1130F4031967F019A94812C9920F9F0C5010E9471
S1130F50200997FD18C0FC01FF2723E0F595E795CC
S1130F602A95E1F7EC0DFD1D208130E0AC014770BE
S1130F70552702C0359527954A95E2F720FDDACF2B
S1130F80B5010E949A09811087CFE114F10411F090
S1130F90D7011C92C80115C0422F46954695469527
S1130FA0D601A40FB11D422F47708B0102C0000F60
S1130FB0111F4A95E2F7A8015C91452B4C93622ED0
S1130FC0A2CFA096EFE00C94490AA0E0B0E0EBEECB
S1130FD0F7E00C942D0A6C01EB015A01FC01178215
S1130FE01682512CF601E380FE01E3FC8591E3FEB9
S1130FF08191182FEF01882309F4EEC090E00E943C
S1131000F608892B21F0C6010E947C06EBCF15322D
S113101041F4FE01E3FC1591E3FE1191EF01153259
S113102081F4C6010E94200997FDD4C0412F50E0ED
S11310309C01332724173507A9F2B6010E949A09A7
S1131040CBC01A3239F4E3FC1591E3FE1191EF01A0
S113105001E001C000E0F12C20ED210F2A3080F4E2
S113106002606F2D70E080E090E040E20E9455063F
S1131070F62EFE01E3FC1591E3FE1191EF01ECCF96
S113108001FF03C0F11003C0A7C0FF24FA9418366F
S113109019F01C3651F010C0FE01E3FC1591E3FE7B
S11310A01191EF01183641F408600460FE01E3FC7D
S11310B01591E3FE1191EF01112309F48DC0612F05
S11310C070E088E690E00E94FF08892B09F484C050
S11310D000FD07C0F50180809180C50102965C0186
S11310E002C0812C912C1E3651F4F60146815781A1
S11310F060E070E0202FC4010E94490673CF1336CC
S1131100A9F401FD02C0FF24F394C6010E94200942
S113111097FD60C08114910429F0F4018083C40117
S113112001964C01FA94F110F0CF50C01B3559F4DC
S11311309E01A4016F2DC6010E942707EC01892B93
S113114009F044C03EC0C6010E947C0697FD42C01F
S11311501F3661F128F4143639F1193651F128C0DB
S1131160133771F0153701F123C08114910429F06C
S1131170F4016082C40101964C01FA94FF2071F0DD
S1131180C6010E9420093C0197FD08C00E94F60890
S1131190892B59F3B601C3010E949A098114910461
S11311A0A9F0F401108212C0006203C0006101C002
S11311B00064202FA4016F2DC6010E9495068111A1
S11311C005C0F6018381807329F406C000FD0ACFAF
S11311D0539408CF552019F0852D90E002C08FEF6D
S11311E09FEFCDB7DEB7EFE00C94490A91110C9450
S11311F0110A803219F089508550C8F70895FC010E
S11312000590061621F00020D9F7C0010895319702
S1131210CF010895FC010590615070400110D8F78A
S1131220809590958E0F9F1F0895FC01615070402A
S113123001900110D8F7809590958E0F9F1F089507
S1131240CF93DF93EC012B8120FF33C026FF0AC02C
S11312502F7B2B838E819F8101969F838E838A812E
S113126090E029C022FF0FC0E881F9818081082E17
S1131270000C990B009719F420622B831AC0319645
S1131280F983E8830EC0EA85FB85099597FF09C0B9
S11312902B81019611F080E201C080E1822B8B83C7
S11312A008C02E813F812F5F3F4F3F832E839927B4
S11312B002C08FEF9FEFDF91CF9108950F931F939B
S11312C0CF93DF93FB01238121FD03C08FEF9FEFB9
S11312D02CC022FF16C046815781248135814217D4
S11312E0530744F4A081B1819D012F5F3F4F3183A7
S11312F020838C93268137812F5F3F4F378326834A
S113130014C08B01EC01FB010084F185E02D0995EB
S1131310892BE1F6D80116968D919C911797019629
S113132017969C938E931697CE01DF91CF911F91C0
S11313300F910895FB01238120FF12C026FD10C0E8
S11313408F3F3FEF930761F082832F7D20642383D7
S113135026813781215031093783268399270895BF
S11313608FEF9FEF0895FA01AA27283051F1203119
S113137081F1E8946F936E7F6E5F7F4F8F4F9F4F25
S1131380AF4FB1E03ED0B4E03CD0670F781F891F67
S11313909A1FA11D680F791F8A1F911DA11D6A0F35
S11313A0711D811D911DA11D20D009F468943F91E8
S11313B02AE0269F11243019305D3193DEF6CF01E7
S11313C00895462F4770405D4193B3E00FD0C9F7AD
S11313D0F6CF462F4F70405D4A3318F0495D31FD1A
S11313E04052419302D0A9F7EACFB4E0A69597956D
S11313F0879577956795BA95C9F700976105710543
S113140008959B01AC010A2E06945795479537958C
S11314102795BA95C9F7620F731F841F951FA01DE6
S11314200895992788270895F999FECF92BD81BD23
S1131430F89A992780B50895262FF999FECF1FBAF7
S113144092BD81BD20BD0FB6F894FA9AF99A0FBEE9
S1131450019608952F923F924F925F926F927F92DE
S11314608F929F92AF92BF92CF92DF92EF92FF92B0
S11314700F931F93CF93DF93CDB7DEB7CA1BDB0B5C
S11314800FB6F894DEBF0FBECDBF09942A88398801
S113149048885F846E847D848C849B84AA84B98408
S11314A0C884DF80EE80FD800C811B81AA81B98114
S11314B0CE0FD11D0FB6F894DEBF0FBECDBFED0128
S10914C00895F894FFCF2B
S11314C63D3D3D3D3D3D3D3D3D3D3D3D3D3D3D3D42
S11314D63D3D3D3D3D3D3D3D0D0A002020474152E9
S11314E6524120524F424F54494341205556470DCD
S11314F60A0031202D3E204D414E55414C0D0A0027
S113150632202D3E20454550524F4D0D0A003320C2
S11315162D3E20554152540D0A0053656C65636394
S1131526696F6E65206F7063696F6E3A20000D0AED
S11315363D3D3D3D3D204D414E55414C204D4F4492
S113154645203D3D3D3D3D0D0A00426F746F6E20C2
S11315562D3E206775617264617220706F73650D2C
S11315660A0071202020202D3E2073616C69720DC3
S11315760A00504F534520256420475541524441A3
S113158644410D0A00454550524F4D204C4C454EA2
S11315964120286D6178203136290D0A0053414CCB
S11315A649454E444F2E2E2E0D0A000D0A3D3D3D53
S11315B63D3D20454550524F4D204D4F4445203D1D
S11315C63D3D3D3D0D0A004E6F2068617920706FE8
S11315D6736573206775617264616461732E0D0AA5
S11315E600256420706F736573206775617264618A
S11315F66461732E0D0A0071202D3E2073616C699F
S1131606720D0A00504F53452025643A2053313A4F
S11316162533642053323A2533642053333A253331
S1131626642053343A2533640D0A000D0A3D3D3DCA
S11316363D3D2055415254204D4F4445203D3D3DAE
S11316463D3D0D0A00466F726D61746F3A20733129
S11316562C73322C73332C73340D0A00456A656D72
S1131666706C6F3A2039302C34352C3132302C34AE
S1131676350D0A00710053414C49454E444F2055DF
S11316864152540D0A0025642C25642C25642C250E
S113169664004F4B3A2053313A25642053323A259D
S11316A6642053333A25642053343A25640D0A00E2
S11316B64552524F523A207573617220666F726DAD
S11316C661746F2039302C34352C3132302C34355A
S10716D60D0A0000F5
S9030000FC
