:100000000C943E000C94CE010C94CE010C94CE01C5
:100010000C94E9000C94CE010C94CE010C94CE010A
:100020000C94CE010C94CE010C94CE010C94CE0114
:100030000C94CE010C94CE010C94CE010C94CE0104
:100040000C94CE010C94CE010C94CE010C94CE01F4
:100050000C94CE010C947D010C94CE010C94CE0135
:100060000C94CE010C94CE01010001100003AA01F2
:10007000100118800118011C0003BA0011241FBED2
:10008000CFEFD8E0DEBFCDBFE8E6F0E040E017C03C
:10009000B591A59135912591059107FD0CC09591DC
:1000A0008591EF01F92FE82F05900D92A217B30764
:1000B000D9F7FE0104C01D92A217B307E1F7EB3791
:1000C000F40731F70E9470000C94C301F894FFCF3D
:1000D000C0F9A4B0999282F880908883C6A1868ED8
:1000E0000E9460017894EAE7F0E080818064808378
:1000F00080911401909115010E94B4010E94920117
:1001000080911601909117018F3F910529F024F0FD
:10011000109217011092160180911601909117010B
:10012000992334F48FEF90E0909317018093160198
:10013000809116018BB9EAE7F0E0808180648083CA
:1001400080911401909115010E94B40180911001D9
:1001500090911101092E000CAA0B80539F4FAF4FB5
:10016000FC018491A7FD808185B980911001909157
:1001700011010E94330188B18D7F88B988B18460F4
:1001800088B98FE19EE40197F1F700C000008091EB
:10019000120190911301092E000CAA0B80539F4F5E
:1001A000AF4FFC018491A7FD808185B98091120138
:1001B000909113010E94330188B18B7F88B988B177
:1001C000826088B98FE19EE40197F1F700C00000DA
:0201D0008ACFD4
:1001D2001F920F920FB60F9211242F933F938F937A
:1001E2009F932FEF89EF90E0215080409040E1F7FC
:1001F20000C0000096B1987090931A0186B1807188
:100202008093180191110EC020911B01222351F0FD
:1002120020911601309117012F5F3F4F3093170144
:100222002093160190931B0181110EC09091190128
:10023200992351F020911601309117012150310973
:100242003093170120931601809319018BB38260BA
:100252008BBB9F918F913F912F910F900FBE0F906B
:040262001F9018953C
:10026600CF93DF93CDB7DEB760970FB6F894DEBFB6
:100276000FBECDBF20E1E0E0F1E0DE011196019076
:100286000D922A95E1F721E030E02C0F3D1F820FF9
:10029600931FFC018081882321F088B18E7F88B965
:1002A60003C088B1816088B960960FB6F894DEBF46
:0A02B6000FBECDBFDF91CF91089578
:1002C000F8948FEF8AB91BB81092C10084B987B136
:1002D000876287B987B1877E87B988B1886188B915
:1002E000E8E6F0E0808182608083ECE6F0E08081E7
:0A02F000886180830E94A501089533
:1002FA001F920F920FB60F9211248F939F938091A2
:10030A00790090E090931501809314019F918F9149
:0A031A000F900FBE0F901F90189572
:1003240020911601309117018091140190911501CB
:100334002817390724F488B1806288B9089588B1F0
:060344008F7D88B90895C9
:10034A00ECE7F0E08081807F87608083808180662F
:0E035A008083EAE7F0E080818F688083089559
:10036800282F22952F7030E030931101209310012F
:0E0378008F7090E0909313018093120108950E
:10038600EC010E94D3010E94D201CE010E94D40149
:06039600CE010E94D0011F
:04039C000C940000BD
:0403A0000E94660051
:0203A4000895BA
:0203A6000895B8
:0203A8000895B6
:1003AA000000010101010100010101010001010137
:0103BA000141
:0103BB000140
:0103BC00013F
:0103BD00013E
:00000001FF
