:020000020000FC
:100000000FEF0DBF08E00EBF0FE004B952985A9AE7
:1000100053985B9A40E045B9549A559A569A579A24
:100020003C98449A3D98459A50E03898409A249AD2
:10003000259A3A9A3B9A399A4A9B0E942C004B9BEC
:100040000E943200349B0E943800359B0E9444007D
:10005000309B0E945000F0CF43954F7045B90E94ED
:10006000660008954A954F7045B90E94660008954C
:1000700053955F70652F6295607F7BB17F70762BA3
:100080007BB90E94660008955A955F70652F62954E
:10009000607F7BB17F70762B7BB90E9466000895EC
:1000A000842F850F2C982D9842984398419880FD75
:1000B0002C9A81FD2D9A82FD429A83FD439A84FDFC
:1000C000419A84FF41980E946600089510E22FEF44
:1000D0003FEF3A95F1F72A95E1F71A95D1F7089590
:00000001FF
