:100000000C9434000C948A000C948A000C948A009E
:100010000C948A000C948A000C948A000C948A0038
:100020000C948A000C948A000C948A000C948A0028
:100030000C948A000C948A000C948A000C948A0018
:100040000C948A000C948A000C948A000C948A0008
:100050000C948A000C948A000C948A000C948A00F8
:100060000C948A000C948A0011241FBECFEFD8E0B4
:10007000DEBFCDBF0E9465000C947300F894FFCFE3
:10008000ECE7F0E09081907F8F70892B8083EAE726
:10009000F0E080818064808380917A0086FDFCCFCF
:0A00A0008091780090917900089596
:1000AA0084B1826084B982E8809380008AE1809377
:1000BA0081008FE39CE990938700809386000895DE
:1000CA000E947E000E94550080E00E9440008851F4
:0C00DA009C4F880F991F0E948500F6CFF4
:1000E600EC010E948F000E948E00CE010E949000BB
:0600F600CE010E948C0007
:0E00FC0080E480937C0086E880937A0008956B
:0A010A009093890080938800089507
:040114000C94000047
:040118000E943E0003
:02011C00089544
:02011E00089542
:02012000089540
:00000001FF
