:020000020000FC
:1000000008C03F065B4F666D7D077F6F777C395E6A
:1000100079710FEF0DBF08E00EBF112403E004B9A2
:1000200008E105B990E09093C1000CEF0AB90FE127
:1000300007B9002708B905E005BD00E004BD00E0F0
:1000400006BD112766277727882738E040E13ED094
:1000500005B300FF18C001E005BB7395763099F435
:10006000772783958A3079F4882763956F7008B174
:10007000007E062B08B9611731F4662708B1007EAF
:1000800008B900E106B901D0E3CF23B133FF07C0BF
:1000900023FD05C02BD023B123FD01C00CD044FFAC
:1000A00007C024FD05C022D023B124FD01C007D024
:1000B000322F422F089513951F7008D008951123F1
:1000C00009F410E11A951F7001D00895F0E0E2E004
:1000D000E10FF11D04910095902F9C7F9BB9A5B174
:1000E000AC7F902F9370A92BA5B90895C2E3D8ECEB
:0C00F0000000DA95E9F7CA95D1F70895F1
:00000001FF
