:100000000C943A000C94EF000C94EF000C94EF0069
:100010000C9464000C94EF000C94EF000C94EF002F
:100020000C94EF000C94EF000C94EF000C94EF0094
:100030000C94EF000C94EF000C94EF000C94EF0084
:100040000C94EF000C94EF000C94EF000C94EF0074
:100050000C94EF000C94EF000C94EF000C94EF0064
:100060000C94EF000C94EF000100010280010201EA
:10007000060001EC11241FBECFEFD8E0DEBFCDBFDC
:10008000E8E6F0E040E017C0B591A59135912591E3
:10009000059107FD0CC095918591EF01F92FE82F8F
:1000A00005900D92A217B307D9F7FE0104C01D9267
:1000B000A217B307E1F7E437F40731F70E94AE0067
:0800C0000C94E400F894FFCF5A
:1000C8001F920F920FB60F9211242F933F938F9385
:1000D8009F932FEF89EF90E0215080409040E1F707
:1000E80000C0000096B198709093040186B18071A9
:1000F8008093020191110EC020910501222351F035
:1001080020910001309101012F5F3F4F3093010191
:10011800209300019093050181110EC09091030175
:10012800992351F0209100013091010121503109AA
:100138003093010120930001809303018BB3826007
:100148008BBB9F918F913F912F910F900FBE0F9076
:040158001F90189547
:10015C000E94CD00789480910001909101018F3F15
:10016C00910529F024F01092010110920001809168
:10017C00000190910101992334F48FEF90E090935A
:0E018C00010180930001809100018BB9E4CF46
:10019A00F8948FEF8AB91BB81092C10087B1877E95
:1001AA0087B988B1886188B9E8E6F0E08081826021
:0E01BA008083ECE6F0E0808188618083089508
:1001C800EC010E94F4000E94F300CE010E94F500A9
:0601D800CE010E94F100BF
:0401DE000C9400007D
:0401E2000E94620015
:0201E60008957A
:0201E800089578
:0201EA00089576
:0101EC000111
:0101ED000110
:0101EE00010F
:0101EF00010E
:00000001FF
